{
  "contractName": "Ballot",
  "abi": [
    {
      "inputs": [
        {
          "internalType": "bytes32[]",
          "name": "proposalNames",
          "type": "bytes32[]"
        }
      ],
      "stateMutability": "nonpayable",
      "type": "constructor"
    },
    {
      "inputs": [],
      "name": "chairperson",
      "outputs": [
        {
          "internalType": "address",
          "name": "",
          "type": "address"
        }
      ],
      "stateMutability": "view",
      "type": "function"
    },
    {
      "inputs": [],
      "name": "owner",
      "outputs": [
        {
          "internalType": "address",
          "name": "",
          "type": "address"
        }
      ],
      "stateMutability": "view",
      "type": "function"
    },
    {
      "inputs": [
        {
          "internalType": "uint256",
          "name": "",
          "type": "uint256"
        }
      ],
      "name": "proposals",
      "outputs": [
        {
          "internalType": "bytes32",
          "name": "name",
          "type": "bytes32"
        },
        {
          "internalType": "uint256",
          "name": "voteCount",
          "type": "uint256"
        }
      ],
      "stateMutability": "view",
      "type": "function"
    },
    {
      "inputs": [
        {
          "internalType": "address",
          "name": "",
          "type": "address"
        }
      ],
      "name": "voters",
      "outputs": [
        {
          "internalType": "uint256",
          "name": "weight",
          "type": "uint256"
        },
        {
          "internalType": "bool",
          "name": "voted",
          "type": "bool"
        },
        {
          "internalType": "address",
          "name": "delegate",
          "type": "address"
        },
        {
          "internalType": "uint256",
          "name": "vote",
          "type": "uint256"
        }
      ],
      "stateMutability": "view",
      "type": "function"
    },
    {
      "inputs": [
        {
          "internalType": "address",
          "name": "voter",
          "type": "address"
        }
      ],
      "name": "giveRightToVote",
      "outputs": [],
      "stateMutability": "nonpayable",
      "type": "function"
    },
    {
      "inputs": [
        {
          "internalType": "address",
          "name": "toVoter",
          "type": "address"
        }
      ],
      "name": "register",
      "outputs": [],
      "stateMutability": "nonpayable",
      "type": "function"
    },
    {
      "inputs": [
        {
          "internalType": "address",
          "name": "to",
          "type": "address"
        }
      ],
      "name": "delegate",
      "outputs": [],
      "stateMutability": "nonpayable",
      "type": "function"
    },
    {
      "inputs": [
        {
          "internalType": "uint256",
          "name": "proposal",
          "type": "uint256"
        }
      ],
      "name": "vote",
      "outputs": [],
      "stateMutability": "nonpayable",
      "type": "function"
    },
    {
      "inputs": [],
      "name": "winningProposal",
      "outputs": [
        {
          "internalType": "uint256",
          "name": "winningProposal_",
          "type": "uint256"
        }
      ],
      "stateMutability": "view",
      "type": "function"
    },
    {
      "inputs": [],
      "name": "winnerName",
      "outputs": [
        {
          "internalType": "bytes32",
          "name": "winnerName_",
          "type": "bytes32"
        }
      ],
      "stateMutability": "view",
      "type": "function"
    }
  ],
  "bytecode": "0x60806040523480156200001157600080fd5b506040516200184e3803806200184e833981810160405281019062000037919062000343565b336000806101000a81548173ffffffffffffffffffffffffffffffffffffffff021916908373ffffffffffffffffffffffffffffffffffffffff1602179055506001600260008060009054906101000a900473ffffffffffffffffffffffffffffffffffffffff1673ffffffffffffffffffffffffffffffffffffffff1673ffffffffffffffffffffffffffffffffffffffff1681526020019081526020016000206000018190555060005b815181101562000177576003604051806040016040528084848151811062000110576200010f62000394565b5b60200260200101518152602001600081525090806001815401808255809150506001900390600052602060002090600202016000909190919091506000820151816000015560208201518160010155505080806200016e90620003fc565b915050620000e3565b50506200044a565b6000604051905090565b600080fd5b600080fd5b600080fd5b6000601f19601f8301169050919050565b7f4e487b7100000000000000000000000000000000000000000000000000000000600052604160045260246000fd5b620001e38262000198565b810181811067ffffffffffffffff82111715620002055762000204620001a9565b5b80604052505050565b60006200021a6200017f565b9050620002288282620001d8565b919050565b600067ffffffffffffffff8211156200024b576200024a620001a9565b5b602082029050602081019050919050565b600080fd5b6000819050919050565b620002768162000261565b81146200028257600080fd5b50565b60008151905062000296816200026b565b92915050565b6000620002b3620002ad846200022d565b6200020e565b90508083825260208201905060208402830185811115620002d957620002d86200025c565b5b835b81811015620003065780620002f1888262000285565b845260208401935050602081019050620002db565b5050509392505050565b600082601f83011262000328576200032762000193565b5b81516200033a8482602086016200029c565b91505092915050565b6000602082840312156200035c576200035b62000189565b5b600082015167ffffffffffffffff8111156200037d576200037c6200018e565b5b6200038b8482850162000310565b91505092915050565b7f4e487b7100000000000000000000000000000000000000000000000000000000600052603260045260246000fd5b7f4e487b7100000000000000000000000000000000000000000000000000000000600052601160045260246000fd5b6000819050919050565b60006200040982620003f2565b91507fffffffffffffffffffffffffffffffffffffffffffffffffffffffffffffffff8214156200043f576200043e620003c3565b5b600182019050919050565b6113f4806200045a6000396000f3fe608060405234801561001057600080fd5b506004361061009e5760003560e01c8063609ff1bd11610066578063609ff1bd146101465780638da5cb5b146101645780639e7b8d6114610182578063a3ec138d1461019e578063e2ba53f0146101d15761009e565b80630121b93f146100a3578063013cf08b146100bf5780632e4176cf146100f05780634420e4861461010e5780635c19a95c1461012a575b600080fd5b6100bd60048036038101906100b89190610c3d565b6101ef565b005b6100d960048036038101906100d49190610c3d565b610336565b6040516100e7929190610c92565b60405180910390f35b6100f861036a565b6040516101059190610cfc565b60405180910390f35b61012860048036038101906101239190610d43565b61038e565b005b610144600480360381019061013f9190610d43565b6104a9565b005b61014e6108d5565b60405161015b9190610d70565b60405180910390f35b61016c61095d565b6040516101799190610cfc565b60405180910390f35b61019c60048036038101906101979190610d43565b610983565b005b6101b860048036038101906101b39190610d43565b610b71565b6040516101c89493929190610da6565b60405180910390f35b6101d9610bce565b6040516101e69190610deb565b60405180910390f35b6000600260003373ffffffffffffffffffffffffffffffffffffffff1673ffffffffffffffffffffffffffffffffffffffff168152602001908152602001600020905060008160000154141561027a576040517f08c379a000000000000000000000000000000000000000000000000000000000815260040161027190610e63565b60405180910390fd5b8060010160009054906101000a900460ff16156102cc576040517f08c379a00000000000000000000000000000000000000000000000000000000081526004016102c390610ecf565b60405180910390fd5b60018160010160006101000a81548160ff02191690831515021790555081816002018190555080600001546003838154811061030b5761030a610eef565b5b9060005260206000209060020201600101600082825461032b9190610f4d565b925050819055505050565b6003818154811061034657600080fd5b90600052602060002090600202016000915090508060000154908060010154905082565b60008054906101000a900473ffffffffffffffffffffffffffffffffffffffff1681565b3373ffffffffffffffffffffffffffffffffffffffff16600160009054906101000a905050506000600260008373ffffffffffffffffffffffffffffffffffffffff1673ffffffffffffffffffffffffffffffffffffffff168152602001908152602001600020600001541461040357600080fd5b6001600260008373ffffffffffffffffffffffffffffffffffffffff1673ffffffffffffffffffffffffffffffffffffffff168152602001908152602001600020600001819055506000600260008373ffffffffffffffffffffffffffffffffffffffff1673ffffffffffffffffffffffffffffffffffffffff16815260200190815260200160002060010160006101000a81548160ff02191690831515021790555050565b6000600260003373ffffffffffffffffffffffffffffffffffffffff1673ffffffffffffffffffffffffffffffffffffffff1681526020019081526020016000209050600081600001541415610534576040517f08c379a000000000000000000000000000000000000000000000000000000000815260040161052b90610fef565b60405180910390fd5b8060010160009054906101000a900460ff1615610586576040517f08c379a000000000000000000000000000000000000000000000000000000000815260040161057d9061105b565b60405180910390fd5b3373ffffffffffffffffffffffffffffffffffffffff168273ffffffffffffffffffffffffffffffffffffffff1614156105f5576040517f08c379a00000000000000000000000000000000000000000000000000000000081526004016105ec906110c7565b60405180910390fd5b5b600073ffffffffffffffffffffffffffffffffffffffff16600260008473ffffffffffffffffffffffffffffffffffffffff1673ffffffffffffffffffffffffffffffffffffffff16815260200190815260200160002060010160019054906101000a900473ffffffffffffffffffffffffffffffffffffffff1673ffffffffffffffffffffffffffffffffffffffff161461076557600260008373ffffffffffffffffffffffffffffffffffffffff1673ffffffffffffffffffffffffffffffffffffffff16815260200190815260200160002060010160019054906101000a900473ffffffffffffffffffffffffffffffffffffffff1691503373ffffffffffffffffffffffffffffffffffffffff168273ffffffffffffffffffffffffffffffffffffffff161415610760576040517f08c379a000000000000000000000000000000000000000000000000000000000815260040161075790611159565b60405180910390fd5b6105f6565b6000600260008473ffffffffffffffffffffffffffffffffffffffff1673ffffffffffffffffffffffffffffffffffffffff16815260200190815260200160002090506001816000015410156107f0576040517f08c379a00000000000000000000000000000000000000000000000000000000081526004016107e7906111eb565b60405180910390fd5b60018260010160006101000a81548160ff021916908315150217905550828260010160016101000a81548173ffffffffffffffffffffffffffffffffffffffff021916908373ffffffffffffffffffffffffffffffffffffffff1602179055508060010160009054906101000a900460ff16156108b0578160000154600382600201548154811061088457610883610eef565b5b906000526020600020906002020160010160008282546108a49190610f4d565b925050819055506108d0565b81600001548160000160008282546108c89190610f4d565b925050819055505b505050565b6000806000905060005b60038054905081101561095857816003828154811061090157610900610eef565b5b9060005260206000209060020201600101541115610945576003818154811061092d5761092c610eef565b5b90600052602060002090600202016001015491508092505b80806109509061120b565b9150506108df565b505090565b600160009054906101000a900473ffffffffffffffffffffffffffffffffffffffff1681565b60008054906101000a900473ffffffffffffffffffffffffffffffffffffffff1673ffffffffffffffffffffffffffffffffffffffff163373ffffffffffffffffffffffffffffffffffffffff1614610a11576040517f08c379a0000000000000000000000000000000000000000000000000000000008152600401610a08906112c6565b60405180910390fd5b600260008273ffffffffffffffffffffffffffffffffffffffff1673ffffffffffffffffffffffffffffffffffffffff16815260200190815260200160002060010160009054906101000a900460ff1615610aa1576040517f08c379a0000000000000000000000000000000000000000000000000000000008152600401610a9890611332565b60405180910390fd5b6000600260008373ffffffffffffffffffffffffffffffffffffffff1673ffffffffffffffffffffffffffffffffffffffff1681526020019081526020016000206000015414610b26576040517f08c379a0000000000000000000000000000000000000000000000000000000008152600401610b1d9061139e565b60405180910390fd5b6001600260008373ffffffffffffffffffffffffffffffffffffffff1673ffffffffffffffffffffffffffffffffffffffff1681526020019081526020016000206000018190555050565b60026020528060005260406000206000915090508060000154908060010160009054906101000a900460ff16908060010160019054906101000a900473ffffffffffffffffffffffffffffffffffffffff16908060020154905084565b60006003610bda6108d5565b81548110610beb57610bea610eef565b5b906000526020600020906002020160000154905090565b600080fd5b6000819050919050565b610c1a81610c07565b8114610c2557600080fd5b50565b600081359050610c3781610c11565b92915050565b600060208284031215610c5357610c52610c02565b5b6000610c6184828501610c28565b91505092915050565b6000819050919050565b610c7d81610c6a565b82525050565b610c8c81610c07565b82525050565b6000604082019050610ca76000830185610c74565b610cb46020830184610c83565b9392505050565b600073ffffffffffffffffffffffffffffffffffffffff82169050919050565b6000610ce682610cbb565b9050919050565b610cf681610cdb565b82525050565b6000602082019050610d116000830184610ced565b92915050565b610d2081610cdb565b8114610d2b57600080fd5b50565b600081359050610d3d81610d17565b92915050565b600060208284031215610d5957610d58610c02565b5b6000610d6784828501610d2e565b91505092915050565b6000602082019050610d856000830184610c83565b92915050565b60008115159050919050565b610da081610d8b565b82525050565b6000608082019050610dbb6000830187610c83565b610dc86020830186610d97565b610dd56040830185610ced565b610de26060830184610c83565b95945050505050565b6000602082019050610e006000830184610c74565b92915050565b600082825260208201905092915050565b7f566f74657220686173206e6f7420726967687420746f20766f74650000000000600082015250565b6000610e4d601b83610e06565b9150610e5882610e17565b602082019050919050565b60006020820190508181036000830152610e7c81610e40565b9050919050565b7f566f7465722068617320616c726561647920766f746564000000000000000000600082015250565b6000610eb9601783610e06565b9150610ec482610e83565b602082019050919050565b60006020820190508181036000830152610ee881610eac565b9050919050565b7f4e487b7100000000000000000000000000000000000000000000000000000000600052603260045260246000fd5b7f4e487b7100000000000000000000000000000000000000000000000000000000600052601160045260246000fd5b6000610f5882610c07565b9150610f6383610c07565b9250827fffffffffffffffffffffffffffffffffffffffffffffffffffffffffffffffff03821115610f9857610f97610f1e565b5b828201905092915050565b7f596f752068617665206e6f20726967687420746f20766f746500000000000000600082015250565b6000610fd9601983610e06565b9150610fe482610fa3565b602082019050919050565b6000602082019050818103600083015261100881610fcc565b9050919050565b7f596f7520616c726561647920766f746564000000000000000000000000000000600082015250565b6000611045601183610e06565b91506110508261100f565b602082019050919050565b6000602082019050818103600083015261107481611038565b9050919050565b7f53656c662d64656c65676174696f6e206973206e6f7420616c6c6f7765640000600082015250565b60006110b1601e83610e06565b91506110bc8261107b565b602082019050919050565b600060208201905081810360008301526110e0816110a4565b9050919050565b7f466f756e64206c6f6f7020696e2064656c65676174696f6e206f66207768696360008201527f68206973206e6f7420616c6c6f77656400000000000000000000000000000000602082015250565b6000611143603083610e06565b915061114e826110e7565b604082019050919050565b6000602082019050818103600083015261117281611136565b9050919050565b7f43616e6e6f742064656c656761746520746f206163636f756e7473207468617460008201527f2063616e6e6f7420766f74650000000000000000000000000000000000000000602082015250565b60006111d5602c83610e06565b91506111e082611179565b604082019050919050565b60006020820190508181036000830152611204816111c8565b9050919050565b600061121682610c07565b91507fffffffffffffffffffffffffffffffffffffffffffffffffffffffffffffffff82141561124957611248610f1e565b5b600182019050919050565b7f4f6e6c7920746865206368616972706572736f6e2063616e206769766520746860008201527f6520726967687420746f20766f74650000000000000000000000000000000000602082015250565b60006112b0602f83610e06565b91506112bb82611254565b604082019050919050565b600060208201905081810360008301526112df816112a3565b9050919050565b7f54686520766f7465722068617320616c726561647920766f7465640000000000600082015250565b600061131c601b83610e06565b9150611327826112e6565b602082019050919050565b6000602082019050818103600083015261134b8161130f565b9050919050565b7f54686520766f7465722773207765696768742073686f756c6420626520300000600082015250565b6000611388601e83610e06565b915061139382611352565b602082019050919050565b600060208201905081810360008301526113b78161137b565b905091905056fea26469706673582212200f5867f15b7fac7358a04d6f0f05d13a0b272fc215b3a9d4296c057c15d9c95664736f6c63430008080033",
  "immutableReferences": {},
  "source": "// SPDX-License-Identifier: MIT\npragma solidity ^0.8.8;\n\n /**\n    * @title Ballot\n    * @dev Implements voting full logic as welll as delegation\n     */\n\ncontract Ballot {\n\n    address public chairperson;\n    address public owner;\n    mapping(address => Voter) public voters;\n\n    Proposal[] public proposals;\n\n    struct Voter {\n        uint weight;\n        bool voted;\n        address delegate;\n        uint vote;\n\n    }\n\n    struct Proposal {\n        bytes32 name;\n        uint voteCount;\n    }\n\n    constructor(bytes32[] memory proposalNames) {\n        chairperson = msg.sender;\n        voters[chairperson].weight = 1;\n\n        for (uint i = 0; i < proposalNames.length; i++) {\n            proposals.push(Proposal({\n                name: proposalNames[i],\n                voteCount: 0\n            }));\n        }\n    }\n\n    modifier onlyOwner() {\n        owner == msg.sender;\n        _;\n    }\n\n    function giveRightToVote(address voter) external {\n        require(msg.sender == chairperson, \"Only the chairperson can give the right to vote\");\n        require(!voters[voter].voted, \"The voter has already voted\");\n        require(voters[voter].weight == 0, \"The voter's weight should be 0\");\n        \n        voters[voter].weight = 1;\n    }\n\n    function register(address toVoter) public onlyOwner {\n        if (voters[toVoter].weight != 0) revert();\n        voters[toVoter].weight = 1;\n        voters[toVoter].voted = false;\n    }\n\n    // Delegate your vote to the voter\n    function delegate(address to) external {\n        Voter storage sender = voters[msg.sender];\n        require(sender.weight != 0, \"You have no right to vote\");\n        require(!sender.voted, \"You already voted\");\n        require(to != msg.sender, \"Self-delegation is not allowed\");\n\n        // we found a while loop in the contract which is dangerous\n        while(voters[to].delegate != address(0)) {\n            to = voters[to].delegate;\n\n            // the loop is avoided to run\n            require(to != msg.sender, \"Found loop in delegation of which is not allowed\");\n        }\n        Voter storage delegate_ = voters[to];\n\n        // Voters cannot delegate to accounts that cannot vote\n        require(delegate_.weight >= 1, \"Cannot delegate to accounts that cannot vote\");\n\n        sender.voted = true;\n        sender.delegate = to;\n\n        if (delegate_.voted) {\n             // If the delegate already voted,\n            // directly add to the number of votes\n            proposals[delegate_.vote].voteCount += sender.weight;\n        } else {\n            // If the delegate did not vote yet, add to their weight\n            delegate_.weight += sender.weight;\n        }\n    }\n\n    function vote(uint proposal) external {\n        Voter storage sender = voters[msg.sender];\n        require(sender.weight != 0, \"Voter has not right to vote\");\n        require(!sender.voted, \"Voter has already voted\");\n        sender.voted = true;\n        sender.vote = proposal;\n\n        //  If `proposal` is out of the range of the array,\n        // this will throw automatically and revert all changes\n        proposals[proposal].voteCount += sender.weight;\n    }\n\n    /**\n    * @dev computes the winnning proposal taking all previous votes into account\n     */\n     function winningProposal() public view returns(uint winningProposal_) {\n        uint winningVoteCount = 0;\n        for (uint p = 0; p < proposals.length; p++) {\n            if (proposals[p].voteCount > winningVoteCount) {\n                winningVoteCount = proposals[p].voteCount;\n                \n                winningProposal_ = p;\n\n            }\n        }\n     }\n\n     /**\n     *Calls winningProposal() function to get the index\n      of the winner contained in the proposals array and then\n      returns the name of the winner \n      */\n\n      function winnerName() external view returns(bytes32 winnerName_) {\n        winnerName_ = proposals[winningProposal()].name;\n      }\n\n}",
  "sourcePath": "/home/jaz/Documents/ACADEMICS/WEB3.0/COURSERA/Dapps/Ballot1/contracts/Ballot.sol",
  "compiler": {
    "name": "solc",
    "version": "0.8.8+commit.dddeac2f.Emscripten.clang"
  },
  "schemaVersion": "3.4.16",
  "updatedAt": "2024-05-16T04:12:29.794Z",
  "devdoc": {
    "details": "Implements voting full logic as welll as delegation",
    "kind": "dev",
    "methods": {
      "winningProposal()": {
        "details": "computes the winnning proposal taking all previous votes into account"
      }
    },
    "title": "Ballot",
    "version": 1
  },
  "userdoc": {
    "kind": "user",
    "methods": {
      "winnerName()": {
        "notice": "Calls winningProposal() function to get the index of the winner contained in the proposals array and then returns the name of the winner "
      }
    },
    "version": 1
  }
}